{
  "_format": "hh-sol-artifact-1",
  "contractName": "ETHDaddy",
  "sourceName": "contracts/ETHDaddy.sol",
  "abi": [
    {
      "inputs": [
        {
          "internalType": "string",
          "name": "_name",
          "type": "string"
        },
        {
          "internalType": "string",
          "name": "_symbol",
          "type": "string"
        }
      ],
      "stateMutability": "nonpayable",
      "type": "constructor"
    },
    {
      "anonymous": false,
      "inputs": [
        {
          "indexed": true,
          "internalType": "address",
          "name": "owner",
          "type": "address"
        },
        {
          "indexed": true,
          "internalType": "address",
          "name": "approved",
          "type": "address"
        },
        {
          "indexed": true,
          "internalType": "uint256",
          "name": "tokenId",
          "type": "uint256"
        }
      ],
      "name": "Approval",
      "type": "event"
    },
    {
      "anonymous": false,
      "inputs": [
        {
          "indexed": true,
          "internalType": "address",
          "name": "owner",
          "type": "address"
        },
        {
          "indexed": true,
          "internalType": "address",
          "name": "operator",
          "type": "address"
        },
        {
          "indexed": false,
          "internalType": "bool",
          "name": "approved",
          "type": "bool"
        }
      ],
      "name": "ApprovalForAll",
      "type": "event"
    },
    {
      "anonymous": false,
      "inputs": [
        {
          "indexed": true,
          "internalType": "address",
          "name": "from",
          "type": "address"
        },
        {
          "indexed": true,
          "internalType": "address",
          "name": "to",
          "type": "address"
        },
        {
          "indexed": true,
          "internalType": "uint256",
          "name": "tokenId",
          "type": "uint256"
        }
      ],
      "name": "Transfer",
      "type": "event"
    },
    {
      "inputs": [
        {
          "internalType": "address",
          "name": "to",
          "type": "address"
        },
        {
          "internalType": "uint256",
          "name": "tokenId",
          "type": "uint256"
        }
      ],
      "name": "approve",
      "outputs": [],
      "stateMutability": "nonpayable",
      "type": "function"
    },
    {
      "inputs": [
        {
          "internalType": "address",
          "name": "owner",
          "type": "address"
        }
      ],
      "name": "balanceOf",
      "outputs": [
        {
          "internalType": "uint256",
          "name": "",
          "type": "uint256"
        }
      ],
      "stateMutability": "view",
      "type": "function"
    },
    {
      "inputs": [],
      "name": "count",
      "outputs": [
        {
          "internalType": "uint256",
          "name": "",
          "type": "uint256"
        }
      ],
      "stateMutability": "view",
      "type": "function"
    },
    {
      "inputs": [
        {
          "internalType": "uint256",
          "name": "",
          "type": "uint256"
        }
      ],
      "name": "domains",
      "outputs": [
        {
          "internalType": "string",
          "name": "name",
          "type": "string"
        },
        {
          "internalType": "uint256",
          "name": "cost",
          "type": "uint256"
        },
        {
          "internalType": "bool",
          "name": "isOwned",
          "type": "bool"
        }
      ],
      "stateMutability": "view",
      "type": "function"
    },
    {
      "inputs": [
        {
          "internalType": "uint256",
          "name": "tokenId",
          "type": "uint256"
        }
      ],
      "name": "getApproved",
      "outputs": [
        {
          "internalType": "address",
          "name": "",
          "type": "address"
        }
      ],
      "stateMutability": "view",
      "type": "function"
    },
    {
      "inputs": [
        {
          "internalType": "address",
          "name": "_address",
          "type": "address"
        }
      ],
      "name": "getBalance",
      "outputs": [
        {
          "internalType": "uint256",
          "name": "",
          "type": "uint256"
        }
      ],
      "stateMutability": "view",
      "type": "function"
    },
    {
      "inputs": [
        {
          "internalType": "uint256",
          "name": "_id",
          "type": "uint256"
        }
      ],
      "name": "getDom",
      "outputs": [
        {
          "components": [
            {
              "internalType": "string",
              "name": "name",
              "type": "string"
            },
            {
              "internalType": "uint256",
              "name": "cost",
              "type": "uint256"
            },
            {
              "internalType": "bool",
              "name": "isOwned",
              "type": "bool"
            }
          ],
          "internalType": "struct ETHDaddy.Domain",
          "name": "",
          "type": "tuple"
        }
      ],
      "stateMutability": "view",
      "type": "function"
    },
    {
      "inputs": [
        {
          "internalType": "address",
          "name": "owner",
          "type": "address"
        },
        {
          "internalType": "address",
          "name": "operator",
          "type": "address"
        }
      ],
      "name": "isApprovedForAll",
      "outputs": [
        {
          "internalType": "bool",
          "name": "",
          "type": "bool"
        }
      ],
      "stateMutability": "view",
      "type": "function"
    },
    {
      "inputs": [
        {
          "internalType": "string",
          "name": "_nam",
          "type": "string"
        },
        {
          "internalType": "uint256",
          "name": "_cost",
          "type": "uint256"
        }
      ],
      "name": "list",
      "outputs": [],
      "stateMutability": "nonpayable",
      "type": "function"
    },
    {
      "inputs": [
        {
          "internalType": "uint256",
          "name": "_id",
          "type": "uint256"
        }
      ],
      "name": "mint",
      "outputs": [],
      "stateMutability": "payable",
      "type": "function"
    },
    {
      "inputs": [],
      "name": "name",
      "outputs": [
        {
          "internalType": "string",
          "name": "",
          "type": "string"
        }
      ],
      "stateMutability": "view",
      "type": "function"
    },
    {
      "inputs": [],
      "name": "owner",
      "outputs": [
        {
          "internalType": "address",
          "name": "",
          "type": "address"
        }
      ],
      "stateMutability": "view",
      "type": "function"
    },
    {
      "inputs": [
        {
          "internalType": "uint256",
          "name": "tokenId",
          "type": "uint256"
        }
      ],
      "name": "ownerOf",
      "outputs": [
        {
          "internalType": "address",
          "name": "",
          "type": "address"
        }
      ],
      "stateMutability": "view",
      "type": "function"
    },
    {
      "inputs": [
        {
          "internalType": "address",
          "name": "from",
          "type": "address"
        },
        {
          "internalType": "address",
          "name": "to",
          "type": "address"
        },
        {
          "internalType": "uint256",
          "name": "tokenId",
          "type": "uint256"
        }
      ],
      "name": "safeTransferFrom",
      "outputs": [],
      "stateMutability": "nonpayable",
      "type": "function"
    },
    {
      "inputs": [
        {
          "internalType": "address",
          "name": "from",
          "type": "address"
        },
        {
          "internalType": "address",
          "name": "to",
          "type": "address"
        },
        {
          "internalType": "uint256",
          "name": "tokenId",
          "type": "uint256"
        },
        {
          "internalType": "bytes",
          "name": "data",
          "type": "bytes"
        }
      ],
      "name": "safeTransferFrom",
      "outputs": [],
      "stateMutability": "nonpayable",
      "type": "function"
    },
    {
      "inputs": [
        {
          "internalType": "address",
          "name": "operator",
          "type": "address"
        },
        {
          "internalType": "bool",
          "name": "approved",
          "type": "bool"
        }
      ],
      "name": "setApprovalForAll",
      "outputs": [],
      "stateMutability": "nonpayable",
      "type": "function"
    },
    {
      "inputs": [
        {
          "internalType": "bytes4",
          "name": "interfaceId",
          "type": "bytes4"
        }
      ],
      "name": "supportsInterface",
      "outputs": [
        {
          "internalType": "bool",
          "name": "",
          "type": "bool"
        }
      ],
      "stateMutability": "view",
      "type": "function"
    },
    {
      "inputs": [],
      "name": "symbol",
      "outputs": [
        {
          "internalType": "string",
          "name": "",
          "type": "string"
        }
      ],
      "stateMutability": "view",
      "type": "function"
    },
    {
      "inputs": [
        {
          "internalType": "uint256",
          "name": "tokenId",
          "type": "uint256"
        }
      ],
      "name": "tokenURI",
      "outputs": [
        {
          "internalType": "string",
          "name": "",
          "type": "string"
        }
      ],
      "stateMutability": "view",
      "type": "function"
    },
    {
      "inputs": [
        {
          "internalType": "address",
          "name": "from",
          "type": "address"
        },
        {
          "internalType": "address",
          "name": "to",
          "type": "address"
        },
        {
          "internalType": "uint256",
          "name": "tokenId",
          "type": "uint256"
        }
      ],
      "name": "transferFrom",
      "outputs": [],
      "stateMutability": "nonpayable",
      "type": "function"
    },
    {
      "inputs": [],
      "name": "withdraw",
      "outputs": [],
      "stateMutability": "nonpayable",
      "type": "function"
    }
  ],
  "bytecode": "0x608060405260006007553480156200001657600080fd5b50604051620039613803806200396183398181016040528101906200003c919062000240565b818181600090816200004f919062000510565b50806001908162000061919062000510565b50505033600660006101000a81548173ffffffffffffffffffffffffffffffffffffffff021916908373ffffffffffffffffffffffffffffffffffffffff1602179055505050620005f7565b6000604051905090565b600080fd5b600080fd5b600080fd5b600080fd5b6000601f19601f8301169050919050565b7f4e487b7100000000000000000000000000000000000000000000000000000000600052604160045260246000fd5b6200011682620000cb565b810181811067ffffffffffffffff82111715620001385762000137620000dc565b5b80604052505050565b60006200014d620000ad565b90506200015b82826200010b565b919050565b600067ffffffffffffffff8211156200017e576200017d620000dc565b5b6200018982620000cb565b9050602081019050919050565b60005b83811015620001b657808201518184015260208101905062000199565b60008484015250505050565b6000620001d9620001d38462000160565b62000141565b905082815260208101848484011115620001f857620001f7620000c6565b5b6200020584828562000196565b509392505050565b600082601f830112620002255762000224620000c1565b5b815162000237848260208601620001c2565b91505092915050565b600080604083850312156200025a5762000259620000b7565b5b600083015167ffffffffffffffff8111156200027b576200027a620000bc565b5b62000289858286016200020d565b925050602083015167ffffffffffffffff811115620002ad57620002ac620000bc565b5b620002bb858286016200020d565b9150509250929050565b600081519050919050565b7f4e487b7100000000000000000000000000000000000000000000000000000000600052602260045260246000fd5b600060028204905060018216806200031857607f821691505b6020821081036200032e576200032d620002d0565b5b50919050565b60008190508160005260206000209050919050565b60006020601f8301049050919050565b600082821b905092915050565b600060088302620003987fffffffffffffffffffffffffffffffffffffffffffffffffffffffffffffffff8262000359565b620003a4868362000359565b95508019841693508086168417925050509392505050565b6000819050919050565b6000819050919050565b6000620003f1620003eb620003e584620003bc565b620003c6565b620003bc565b9050919050565b6000819050919050565b6200040d83620003d0565b620004256200041c82620003f8565b84845462000366565b825550505050565b600090565b6200043c6200042d565b6200044981848462000402565b505050565b5b8181101562000471576200046560008262000432565b6001810190506200044f565b5050565b601f821115620004c0576200048a8162000334565b620004958462000349565b81016020851015620004a5578190505b620004bd620004b48562000349565b8301826200044e565b50505b505050565b600082821c905092915050565b6000620004e560001984600802620004c5565b1980831691505092915050565b6000620005008383620004d2565b9150826002028217905092915050565b6200051b82620002c5565b67ffffffffffffffff811115620005375762000536620000dc565b5b620005438254620002ff565b6200055082828562000475565b600060209050601f83116001811462000588576000841562000573578287015190505b6200057f8582620004f2565b865550620005ef565b601f198416620005988662000334565b60005b82811015620005c2578489015182556001820191506020850194506020810190506200059b565b86831015620005e25784890151620005de601f891682620004d2565b8355505b6001600288020188555050505b505050505050565b61335a80620006076000396000f3fe60806040526004361061012a5760003560e01c80636352211e116100ab578063a0712d681161006f578063a0712d6814610406578063a22cb46514610422578063b88d4fde1461044b578063c87b56dd14610474578063e985e9c5146104b1578063f8b2cb4f146104ee5761012a565b80636352211e146102f757806366cf8fab1461033457806370a08231146103735780638da5cb5b146103b057806395d89b41146103db5761012a565b806323b872dd116100f257806323b872dd146102285780633ccfd60b1461025157806342842e0e146102685780634a878dfa1461029157806355275f68146102ba5761012a565b806301ffc9a71461012f57806306661abd1461016c57806306fdde0314610197578063081812fc146101c2578063095ea7b3146101ff575b600080fd5b34801561013b57600080fd5b5061015660048036038101906101519190611fe6565b61052b565b604051610163919061202e565b60405180910390f35b34801561017857600080fd5b5061018161060d565b60405161018e9190612062565b60405180910390f35b3480156101a357600080fd5b506101ac610613565b6040516101b9919061210d565b60405180910390f35b3480156101ce57600080fd5b506101e960048036038101906101e4919061215b565b6106a5565b6040516101f691906121c9565b60405180910390f35b34801561020b57600080fd5b5061022660048036038101906102219190612210565b6106eb565b005b34801561023457600080fd5b5061024f600480360381019061024a9190612250565b610802565b005b34801561025d57600080fd5b50610266610862565b005b34801561027457600080fd5b5061028f600480360381019061028a9190612250565b61095d565b005b34801561029d57600080fd5b506102b860048036038101906102b391906123d8565b61097d565b005b3480156102c657600080fd5b506102e160048036038101906102dc919061215b565b610a9f565b6040516102ee91906124ec565b60405180910390f35b34801561030357600080fd5b5061031e6004803603810190610319919061215b565b610b83565b60405161032b91906121c9565b60405180910390f35b34801561034057600080fd5b5061035b6004803603810190610356919061215b565b610c09565b60405161036a9392919061250e565b60405180910390f35b34801561037f57600080fd5b5061039a6004803603810190610395919061254c565b610cc8565b6040516103a79190612062565b60405180910390f35b3480156103bc57600080fd5b506103c5610d7f565b6040516103d291906121c9565b60405180910390f35b3480156103e757600080fd5b506103f0610da5565b6040516103fd919061210d565b60405180910390f35b610420600480360381019061041b919061215b565b610e37565b005b34801561042e57600080fd5b50610449600480360381019061044491906125a5565b610ed4565b005b34801561045757600080fd5b50610472600480360381019061046d9190612686565b610eea565b005b34801561048057600080fd5b5061049b6004803603810190610496919061215b565b610f4c565b6040516104a8919061210d565b60405180910390f35b3480156104bd57600080fd5b506104d860048036038101906104d39190612709565b610fb4565b6040516104e5919061202e565b60405180910390f35b3480156104fa57600080fd5b506105156004803603810190610510919061254c565b611048565b6040516105229190612062565b60405180910390f35b60007f80ac58cd000000000000000000000000000000000000000000000000000000007bffffffffffffffffffffffffffffffffffffffffffffffffffffffff1916827bffffffffffffffffffffffffffffffffffffffffffffffffffffffff191614806105f657507f5b5e139f000000000000000000000000000000000000000000000000000000007bffffffffffffffffffffffffffffffffffffffffffffffffffffffff1916827bffffffffffffffffffffffffffffffffffffffffffffffffffffffff1916145b80610606575061060582611069565b5b9050919050565b60075481565b60606000805461062290612778565b80601f016020809104026020016040519081016040528092919081815260200182805461064e90612778565b801561069b5780601f106106705761010080835404028352916020019161069b565b820191906000526020600020905b81548152906001019060200180831161067e57829003601f168201915b5050505050905090565b60006106b0826110d3565b6004600083815260200190815260200160002060009054906101000a900473ffffffffffffffffffffffffffffffffffffffff169050919050565b60006106f682610b83565b90508073ffffffffffffffffffffffffffffffffffffffff168373ffffffffffffffffffffffffffffffffffffffff1603610766576040517f08c379a000000000000000000000000000000000000000000000000000000000815260040161075d9061281b565b60405180910390fd5b8073ffffffffffffffffffffffffffffffffffffffff1661078561111e565b73ffffffffffffffffffffffffffffffffffffffff1614806107b457506107b3816107ae61111e565b610fb4565b5b6107f3576040517f08c379a00000000000000000000000000000000000000000000000000000000081526004016107ea906128ad565b60405180910390fd5b6107fd8383611126565b505050565b61081361080d61111e565b826111df565b610852576040517f08c379a00000000000000000000000000000000000000000000000000000000081526004016108499061293f565b60405180910390fd5b61085d838383611274565b505050565b600660009054906101000a900473ffffffffffffffffffffffffffffffffffffffff1673ffffffffffffffffffffffffffffffffffffffff163373ffffffffffffffffffffffffffffffffffffffff16146108f2576040517f08c379a00000000000000000000000000000000000000000000000000000000081526004016108e9906129d1565b60405180910390fd5b600660009054906101000a900473ffffffffffffffffffffffffffffffffffffffff1673ffffffffffffffffffffffffffffffffffffffff166108fc479081150290604051600060405180830381858888f1935050505015801561095a573d6000803e3d6000fd5b50565b61097883838360405180602001604052806000815250610eea565b505050565b600660009054906101000a900473ffffffffffffffffffffffffffffffffffffffff1673ffffffffffffffffffffffffffffffffffffffff163373ffffffffffffffffffffffffffffffffffffffff1614610a0d576040517f08c379a0000000000000000000000000000000000000000000000000000000008152600401610a04906129d1565b60405180910390fd5b6040518060600160405280838152602001828152602001600015158152506008600060075481526020019081526020016000206000820151816000019081610a559190612b9d565b506020820151816001015560408201518160020160006101000a81548160ff02191690831515021790555090505060076000815480929190610a9690612c9e565b91905055505050565b610aa7611f57565b60086000838152602001908152602001600020604051806060016040529081600082018054610ad590612778565b80601f0160208091040260200160405190810160405280929190818152602001828054610b0190612778565b8015610b4e5780601f10610b2357610100808354040283529160200191610b4e565b820191906000526020600020905b815481529060010190602001808311610b3157829003601f168201915b50505050508152602001600182015481526020016002820160009054906101000a900460ff1615151515815250509050919050565b600080610b8f8361156d565b9050600073ffffffffffffffffffffffffffffffffffffffff168173ffffffffffffffffffffffffffffffffffffffff1603610c00576040517f08c379a0000000000000000000000000000000000000000000000000000000008152600401610bf790612d32565b60405180910390fd5b80915050919050565b6008602052806000526040600020600091509050806000018054610c2c90612778565b80601f0160208091040260200160405190810160405280929190818152602001828054610c5890612778565b8015610ca55780601f10610c7a57610100808354040283529160200191610ca5565b820191906000526020600020905b815481529060010190602001808311610c8857829003601f168201915b5050505050908060010154908060020160009054906101000a900460ff16905083565b60008073ffffffffffffffffffffffffffffffffffffffff168273ffffffffffffffffffffffffffffffffffffffff1603610d38576040517f08c379a0000000000000000000000000000000000000000000000000000000008152600401610d2f90612dc4565b60405180910390fd5b600360008373ffffffffffffffffffffffffffffffffffffffff1673ffffffffffffffffffffffffffffffffffffffff168152602001908152602001600020549050919050565b600660009054906101000a900473ffffffffffffffffffffffffffffffffffffffff1681565b606060018054610db490612778565b80601f0160208091040260200160405190810160405280929190818152602001828054610de090612778565b8015610e2d5780601f10610e0257610100808354040283529160200191610e2d565b820191906000526020600020905b815481529060010190602001808311610e1057829003601f168201915b5050505050905090565b8060006008600083815260200190815260200160002060010154905080341015610e96576040517f08c379a0000000000000000000000000000000000000000000000000000000008152600401610e8d90612e30565b60405180910390fd5b60016008600085815260200190815260200160002060020160006101000a81548160ff021916908315150217905550610ecf33846115aa565b505050565b610ee6610edf61111e565b83836115c8565b5050565b610efb610ef561111e565b836111df565b610f3a576040517f08c379a0000000000000000000000000000000000000000000000000000000008152600401610f319061293f565b60405180910390fd5b610f4684848484611734565b50505050565b6060610f57826110d3565b6000610f61611790565b90506000815111610f815760405180602001604052806000815250610fac565b80610f8b846117a7565b604051602001610f9c929190612e8c565b6040516020818303038152906040525b915050919050565b6000600560008473ffffffffffffffffffffffffffffffffffffffff1673ffffffffffffffffffffffffffffffffffffffff16815260200190815260200160002060008373ffffffffffffffffffffffffffffffffffffffff1673ffffffffffffffffffffffffffffffffffffffff16815260200190815260200160002060009054906101000a900460ff16905092915050565b60008173ffffffffffffffffffffffffffffffffffffffff16319050919050565b60007f01ffc9a7000000000000000000000000000000000000000000000000000000007bffffffffffffffffffffffffffffffffffffffffffffffffffffffff1916827bffffffffffffffffffffffffffffffffffffffffffffffffffffffff1916149050919050565b6110dc81611875565b61111b576040517f08c379a000000000000000000000000000000000000000000000000000000000815260040161111290612d32565b60405180910390fd5b50565b600033905090565b816004600083815260200190815260200160002060006101000a81548173ffffffffffffffffffffffffffffffffffffffff021916908373ffffffffffffffffffffffffffffffffffffffff160217905550808273ffffffffffffffffffffffffffffffffffffffff1661119983610b83565b73ffffffffffffffffffffffffffffffffffffffff167f8c5be1e5ebec7d5bd14f71427d1e84f3dd0314c0f7b2291e5b200ac8c7c3b92560405160405180910390a45050565b6000806111eb83610b83565b90508073ffffffffffffffffffffffffffffffffffffffff168473ffffffffffffffffffffffffffffffffffffffff16148061122d575061122c8185610fb4565b5b8061126b57508373ffffffffffffffffffffffffffffffffffffffff16611253846106a5565b73ffffffffffffffffffffffffffffffffffffffff16145b91505092915050565b8273ffffffffffffffffffffffffffffffffffffffff1661129482610b83565b73ffffffffffffffffffffffffffffffffffffffff16146112ea576040517f08c379a00000000000000000000000000000000000000000000000000000000081526004016112e190612f22565b60405180910390fd5b600073ffffffffffffffffffffffffffffffffffffffff168273ffffffffffffffffffffffffffffffffffffffff1603611359576040517f08c379a000000000000000000000000000000000000000000000000000000000815260040161135090612fb4565b60405180910390fd5b61136683838360016118b6565b8273ffffffffffffffffffffffffffffffffffffffff1661138682610b83565b73ffffffffffffffffffffffffffffffffffffffff16146113dc576040517f08c379a00000000000000000000000000000000000000000000000000000000081526004016113d390612f22565b60405180910390fd5b6004600082815260200190815260200160002060006101000a81549073ffffffffffffffffffffffffffffffffffffffff02191690556001600360008573ffffffffffffffffffffffffffffffffffffffff1673ffffffffffffffffffffffffffffffffffffffff168152602001908152602001600020600082825403925050819055506001600360008473ffffffffffffffffffffffffffffffffffffffff1673ffffffffffffffffffffffffffffffffffffffff16815260200190815260200160002060008282540192505081905550816002600083815260200190815260200160002060006101000a81548173ffffffffffffffffffffffffffffffffffffffff021916908373ffffffffffffffffffffffffffffffffffffffff160217905550808273ffffffffffffffffffffffffffffffffffffffff168473ffffffffffffffffffffffffffffffffffffffff167fddf252ad1be2c89b69c2b068fc378daa952ba7f163c4a11628f55a4df523b3ef60405160405180910390a461156883838360016119dc565b505050565b60006002600083815260200190815260200160002060009054906101000a900473ffffffffffffffffffffffffffffffffffffffff169050919050565b6115c48282604051806020016040528060008152506119e2565b5050565b8173ffffffffffffffffffffffffffffffffffffffff168373ffffffffffffffffffffffffffffffffffffffff1603611636576040517f08c379a000000000000000000000000000000000000000000000000000000000815260040161162d90613020565b60405180910390fd5b80600560008573ffffffffffffffffffffffffffffffffffffffff1673ffffffffffffffffffffffffffffffffffffffff16815260200190815260200160002060008473ffffffffffffffffffffffffffffffffffffffff1673ffffffffffffffffffffffffffffffffffffffff16815260200190815260200160002060006101000a81548160ff0219169083151502179055508173ffffffffffffffffffffffffffffffffffffffff168373ffffffffffffffffffffffffffffffffffffffff167f17307eab39ab6107e8899845ad3d59bd9653f200f220920489ca2b5937696c3183604051611727919061202e565b60405180910390a3505050565b61173f848484611274565b61174b84848484611a3d565b61178a576040517f08c379a0000000000000000000000000000000000000000000000000000000008152600401611781906130b2565b60405180910390fd5b50505050565b606060405180602001604052806000815250905090565b6060600060016117b684611bc4565b01905060008167ffffffffffffffff8111156117d5576117d46122ad565b5b6040519080825280601f01601f1916602001820160405280156118075781602001600182028036833780820191505090505b509050600082602001820190505b60011561186a578080600190039150507f3031323334353637383961626364656600000000000000000000000000000000600a86061a8153600a858161185e5761185d6130d2565b5b04945060008503611815575b819350505050919050565b60008073ffffffffffffffffffffffffffffffffffffffff166118978361156d565b73ffffffffffffffffffffffffffffffffffffffff1614159050919050565b60018111156119d657600073ffffffffffffffffffffffffffffffffffffffff168473ffffffffffffffffffffffffffffffffffffffff161461194a5780600360008673ffffffffffffffffffffffffffffffffffffffff1673ffffffffffffffffffffffffffffffffffffffff16815260200190815260200160002060008282546119429190613101565b925050819055505b600073ffffffffffffffffffffffffffffffffffffffff168373ffffffffffffffffffffffffffffffffffffffff16146119d55780600360008573ffffffffffffffffffffffffffffffffffffffff1673ffffffffffffffffffffffffffffffffffffffff16815260200190815260200160002060008282546119cd9190613135565b925050819055505b5b50505050565b50505050565b6119ec8383611d17565b6119f96000848484611a3d565b611a38576040517f08c379a0000000000000000000000000000000000000000000000000000000008152600401611a2f906130b2565b60405180910390fd5b505050565b6000611a5e8473ffffffffffffffffffffffffffffffffffffffff16611f34565b15611bb7578373ffffffffffffffffffffffffffffffffffffffff1663150b7a02611a8761111e565b8786866040518563ffffffff1660e01b8152600401611aa994939291906131be565b6020604051808303816000875af1925050508015611ae557506040513d601f19601f82011682018060405250810190611ae2919061321f565b60015b611b67573d8060008114611b15576040519150601f19603f3d011682016040523d82523d6000602084013e611b1a565b606091505b506000815103611b5f576040517f08c379a0000000000000000000000000000000000000000000000000000000008152600401611b56906130b2565b60405180910390fd5b805181602001fd5b63150b7a0260e01b7bffffffffffffffffffffffffffffffffffffffffffffffffffffffff1916817bffffffffffffffffffffffffffffffffffffffffffffffffffffffff191614915050611bbc565b600190505b949350505050565b600080600090507a184f03e93ff9f4daa797ed6e38ed64bf6a1f0100000000000000008310611c22577a184f03e93ff9f4daa797ed6e38ed64bf6a1f0100000000000000008381611c1857611c176130d2565b5b0492506040810190505b6d04ee2d6d415b85acef81000000008310611c5f576d04ee2d6d415b85acef81000000008381611c5557611c546130d2565b5b0492506020810190505b662386f26fc100008310611c8e57662386f26fc100008381611c8457611c836130d2565b5b0492506010810190505b6305f5e1008310611cb7576305f5e1008381611cad57611cac6130d2565b5b0492506008810190505b6127108310611cdc576127108381611cd257611cd16130d2565b5b0492506004810190505b60648310611cff5760648381611cf557611cf46130d2565b5b0492506002810190505b600a8310611d0e576001810190505b80915050919050565b600073ffffffffffffffffffffffffffffffffffffffff168273ffffffffffffffffffffffffffffffffffffffff1603611d86576040517f08c379a0000000000000000000000000000000000000000000000000000000008152600401611d7d90613298565b60405180910390fd5b611d8f81611875565b15611dcf576040517f08c379a0000000000000000000000000000000000000000000000000000000008152600401611dc690613304565b60405180910390fd5b611ddd6000838360016118b6565b611de681611875565b15611e26576040517f08c379a0000000000000000000000000000000000000000000000000000000008152600401611e1d90613304565b60405180910390fd5b6001600360008473ffffffffffffffffffffffffffffffffffffffff1673ffffffffffffffffffffffffffffffffffffffff16815260200190815260200160002060008282540192505081905550816002600083815260200190815260200160002060006101000a81548173ffffffffffffffffffffffffffffffffffffffff021916908373ffffffffffffffffffffffffffffffffffffffff160217905550808273ffffffffffffffffffffffffffffffffffffffff16600073ffffffffffffffffffffffffffffffffffffffff167fddf252ad1be2c89b69c2b068fc378daa952ba7f163c4a11628f55a4df523b3ef60405160405180910390a4611f306000838360016119dc565b5050565b6000808273ffffffffffffffffffffffffffffffffffffffff163b119050919050565b604051806060016040528060608152602001600081526020016000151581525090565b6000604051905090565b600080fd5b600080fd5b60007fffffffff0000000000000000000000000000000000000000000000000000000082169050919050565b611fc381611f8e565b8114611fce57600080fd5b50565b600081359050611fe081611fba565b92915050565b600060208284031215611ffc57611ffb611f84565b5b600061200a84828501611fd1565b91505092915050565b60008115159050919050565b61202881612013565b82525050565b6000602082019050612043600083018461201f565b92915050565b6000819050919050565b61205c81612049565b82525050565b60006020820190506120776000830184612053565b92915050565b600081519050919050565b600082825260208201905092915050565b60005b838110156120b757808201518184015260208101905061209c565b60008484015250505050565b6000601f19601f8301169050919050565b60006120df8261207d565b6120e98185612088565b93506120f9818560208601612099565b612102816120c3565b840191505092915050565b6000602082019050818103600083015261212781846120d4565b905092915050565b61213881612049565b811461214357600080fd5b50565b6000813590506121558161212f565b92915050565b60006020828403121561217157612170611f84565b5b600061217f84828501612146565b91505092915050565b600073ffffffffffffffffffffffffffffffffffffffff82169050919050565b60006121b382612188565b9050919050565b6121c3816121a8565b82525050565b60006020820190506121de60008301846121ba565b92915050565b6121ed816121a8565b81146121f857600080fd5b50565b60008135905061220a816121e4565b92915050565b6000806040838503121561222757612226611f84565b5b6000612235858286016121fb565b925050602061224685828601612146565b9150509250929050565b60008060006060848603121561226957612268611f84565b5b6000612277868287016121fb565b9350506020612288868287016121fb565b925050604061229986828701612146565b9150509250925092565b600080fd5b600080fd5b7f4e487b7100000000000000000000000000000000000000000000000000000000600052604160045260246000fd5b6122e5826120c3565b810181811067ffffffffffffffff82111715612304576123036122ad565b5b80604052505050565b6000612317611f7a565b905061232382826122dc565b919050565b600067ffffffffffffffff821115612343576123426122ad565b5b61234c826120c3565b9050602081019050919050565b82818337600083830152505050565b600061237b61237684612328565b61230d565b905082815260208101848484011115612397576123966122a8565b5b6123a2848285612359565b509392505050565b600082601f8301126123bf576123be6122a3565b5b81356123cf848260208601612368565b91505092915050565b600080604083850312156123ef576123ee611f84565b5b600083013567ffffffffffffffff81111561240d5761240c611f89565b5b612419858286016123aa565b925050602061242a85828601612146565b9150509250929050565b600082825260208201905092915050565b60006124508261207d565b61245a8185612434565b935061246a818560208601612099565b612473816120c3565b840191505092915050565b61248781612049565b82525050565b61249681612013565b82525050565b600060608301600083015184820360008601526124b98282612445565b91505060208301516124ce602086018261247e565b5060408301516124e1604086018261248d565b508091505092915050565b60006020820190508181036000830152612506818461249c565b905092915050565b6000606082019050818103600083015261252881866120d4565b90506125376020830185612053565b612544604083018461201f565b949350505050565b60006020828403121561256257612561611f84565b5b6000612570848285016121fb565b91505092915050565b61258281612013565b811461258d57600080fd5b50565b60008135905061259f81612579565b92915050565b600080604083850312156125bc576125bb611f84565b5b60006125ca858286016121fb565b92505060206125db85828601612590565b9150509250929050565b600067ffffffffffffffff821115612600576125ff6122ad565b5b612609826120c3565b9050602081019050919050565b6000612629612624846125e5565b61230d565b905082815260208101848484011115612645576126446122a8565b5b612650848285612359565b509392505050565b600082601f83011261266d5761266c6122a3565b5b813561267d848260208601612616565b91505092915050565b600080600080608085870312156126a05761269f611f84565b5b60006126ae878288016121fb565b94505060206126bf878288016121fb565b93505060406126d087828801612146565b925050606085013567ffffffffffffffff8111156126f1576126f0611f89565b5b6126fd87828801612658565b91505092959194509250565b600080604083850312156127205761271f611f84565b5b600061272e858286016121fb565b925050602061273f858286016121fb565b9150509250929050565b7f4e487b7100000000000000000000000000000000000000000000000000000000600052602260045260246000fd5b6000600282049050600182168061279057607f821691505b6020821081036127a3576127a2612749565b5b50919050565b7f4552433732313a20617070726f76616c20746f2063757272656e74206f776e6560008201527f7200000000000000000000000000000000000000000000000000000000000000602082015250565b6000612805602183612088565b9150612810826127a9565b604082019050919050565b60006020820190508181036000830152612834816127f8565b9050919050565b7f4552433732313a20617070726f76652063616c6c6572206973206e6f7420746f60008201527f6b656e206f776e6572206f7220617070726f76656420666f7220616c6c000000602082015250565b6000612897603d83612088565b91506128a28261283b565b604082019050919050565b600060208201905081810360008301526128c68161288a565b9050919050565b7f4552433732313a2063616c6c6572206973206e6f7420746f6b656e206f776e6560008201527f72206f7220617070726f76656400000000000000000000000000000000000000602082015250565b6000612929602d83612088565b9150612934826128cd565b604082019050919050565b600060208201905081810360008301526129588161291c565b9050919050565b7f6a757374206f776e65722063616e20616464206120646f6d61696e20746f206c60008201527f6973740000000000000000000000000000000000000000000000000000000000602082015250565b60006129bb602383612088565b91506129c68261295f565b604082019050919050565b600060208201905081810360008301526129ea816129ae565b9050919050565b60008190508160005260206000209050919050565b60006020601f8301049050919050565b600082821b905092915050565b600060088302612a537fffffffffffffffffffffffffffffffffffffffffffffffffffffffffffffffff82612a16565b612a5d8683612a16565b95508019841693508086168417925050509392505050565b6000819050919050565b6000612a9a612a95612a9084612049565b612a75565b612049565b9050919050565b6000819050919050565b612ab483612a7f565b612ac8612ac082612aa1565b848454612a23565b825550505050565b600090565b612add612ad0565b612ae8818484612aab565b505050565b5b81811015612b0c57612b01600082612ad5565b600181019050612aee565b5050565b601f821115612b5157612b22816129f1565b612b2b84612a06565b81016020851015612b3a578190505b612b4e612b4685612a06565b830182612aed565b50505b505050565b600082821c905092915050565b6000612b7460001984600802612b56565b1980831691505092915050565b6000612b8d8383612b63565b9150826002028217905092915050565b612ba68261207d565b67ffffffffffffffff811115612bbf57612bbe6122ad565b5b612bc98254612778565b612bd4828285612b10565b600060209050601f831160018114612c075760008415612bf5578287015190505b612bff8582612b81565b865550612c67565b601f198416612c15866129f1565b60005b82811015612c3d57848901518255600182019150602085019450602081019050612c18565b86831015612c5a5784890151612c56601f891682612b63565b8355505b6001600288020188555050505b505050505050565b7f4e487b7100000000000000000000000000000000000000000000000000000000600052601160045260246000fd5b6000612ca982612049565b91507fffffffffffffffffffffffffffffffffffffffffffffffffffffffffffffffff8203612cdb57612cda612c6f565b5b600182019050919050565b7f4552433732313a20696e76616c696420746f6b656e2049440000000000000000600082015250565b6000612d1c601883612088565b9150612d2782612ce6565b602082019050919050565b60006020820190508181036000830152612d4b81612d0f565b9050919050565b7f4552433732313a2061646472657373207a65726f206973206e6f74206120766160008201527f6c6964206f776e65720000000000000000000000000000000000000000000000602082015250565b6000612dae602983612088565b9150612db982612d52565b604082019050919050565b60006020820190508181036000830152612ddd81612da1565b9050919050565b7f4d696e696d756d73206574686572732072657175697265640000000000000000600082015250565b6000612e1a601883612088565b9150612e2582612de4565b602082019050919050565b60006020820190508181036000830152612e4981612e0d565b9050919050565b600081905092915050565b6000612e668261207d565b612e708185612e50565b9350612e80818560208601612099565b80840191505092915050565b6000612e988285612e5b565b9150612ea48284612e5b565b91508190509392505050565b7f4552433732313a207472616e736665722066726f6d20696e636f72726563742060008201527f6f776e6572000000000000000000000000000000000000000000000000000000602082015250565b6000612f0c602583612088565b9150612f1782612eb0565b604082019050919050565b60006020820190508181036000830152612f3b81612eff565b9050919050565b7f4552433732313a207472616e7366657220746f20746865207a65726f2061646460008201527f7265737300000000000000000000000000000000000000000000000000000000602082015250565b6000612f9e602483612088565b9150612fa982612f42565b604082019050919050565b60006020820190508181036000830152612fcd81612f91565b9050919050565b7f4552433732313a20617070726f766520746f2063616c6c657200000000000000600082015250565b600061300a601983612088565b915061301582612fd4565b602082019050919050565b6000602082019050818103600083015261303981612ffd565b9050919050565b7f4552433732313a207472616e7366657220746f206e6f6e20455243373231526560008201527f63656976657220696d706c656d656e7465720000000000000000000000000000602082015250565b600061309c603283612088565b91506130a782613040565b604082019050919050565b600060208201905081810360008301526130cb8161308f565b9050919050565b7f4e487b7100000000000000000000000000000000000000000000000000000000600052601260045260246000fd5b600061310c82612049565b915061311783612049565b925082820390508181111561312f5761312e612c6f565b5b92915050565b600061314082612049565b915061314b83612049565b925082820190508082111561316357613162612c6f565b5b92915050565b600081519050919050565b600082825260208201905092915050565b600061319082613169565b61319a8185613174565b93506131aa818560208601612099565b6131b3816120c3565b840191505092915050565b60006080820190506131d360008301876121ba565b6131e060208301866121ba565b6131ed6040830185612053565b81810360608301526131ff8184613185565b905095945050505050565b60008151905061321981611fba565b92915050565b60006020828403121561323557613234611f84565b5b60006132438482850161320a565b91505092915050565b7f4552433732313a206d696e7420746f20746865207a65726f2061646472657373600082015250565b6000613282602083612088565b915061328d8261324c565b602082019050919050565b600060208201905081810360008301526132b181613275565b9050919050565b7f4552433732313a20746f6b656e20616c7265616479206d696e74656400000000600082015250565b60006132ee601c83612088565b91506132f9826132b8565b602082019050919050565b6000602082019050818103600083015261331d816132e1565b905091905056fea26469706673582212209e812583cc1bc16a797ba10d4cad1067ed1691389822633b3847f06d8a5c89b564736f6c63430008110033",
  "linkReferences": {},
  "deployedLinkReferences": {}
}